:1000000012C02CC02BC02AC029C028C027C026C0BF
:1000100025C024C023C022C021C020C01FC01EC0D4
:100020001DC01CC01BC011241FBECFE5D4E0DEBF25
:10003000CDBF10E0A0E6B0E0E8EAF1E102C0059033
:100040000D92AE37B107D9F720E0AEE7B0E001C0BE
:100050001D92AF37B207E1F75CD5A4C8D1CF91B3F9
:10006000976091BB91B3986791BB9198662311F00B
:10007000909A01C09098929A92B3977892BB83FD20
:10008000969A82FD959A81FD949A80FD939A8DE0CF
:100090008A95F1F700009298089591B3976091BB0B
:1000A000919A882311F0909A01C09098929A81B306
:1000B000877881BB82B3886782BB8DE08A95F1F730
:1000C00000009298869902C080E001C088E085997E
:1000D0008460849982608399816008951F93CF938F
:1000E000DF93182FDADF90E18902E0011124812FDC
:1000F000D4DF8C2BDF91CF911F910895CF93DF93A5
:10010000C82FD62F8595859585958595A8DF6D2F68
:100110008C2FDF91CF91A3CF8FEC97E00197F1F770
:1001200000C0000080E008958FEC97E00197F1F7A0
:1001300000C0000060E082E092DF8FEC97E0019762
:10014000F1F700C0000060E088E2D8DF8FEC97E0B4
:100150000197F1F700C0000060E081E0CFDF8FEC95
:1001600097E00197F1F700C0000060E086E0C6DF8D
:100170008FEC97E00197F1F700C0000060E08CE0A1
:10018000BDCFEFECF7E03197F1F700C0000060E081
:100190008C60B4CFEFECF7E03197F1F700C00000CE
:1001A00060E08860ABCF8FEC97E00197F1F700C07B
:1001B000000060E081E0A2CF962FEFECF7E03197EE
:1001C000F1F700C00000F0E48F9F900D112460E073
:1001D000892F806893CFCF93DF93C82FD62FD86114
:1001E000CC2359F08FEC97E00197F1F700C00000A5
:1001F00060E08D2F83DFC150F3CFDF91CF91089561
:10020000CF93DF93EC01FE018881882359F08FECB6
:1002100097E00197F1F700C00000219661E080812E
:100220006DDFF1CFDF91CF910895CF93DF93EC0194
:10023000CE01FE012491222361F0EFECF7E031972B
:10024000F1F700C000002196FC01849161E056DFC7
:10025000EFCFDF91CF9108950F931F93CF93DF934B
:10026000EC01CE0187D7882379F08FEC97E00197D6
:10027000F1F700C000008E010F5F1F4FCE017AD74B
:1002800061E03CDFE801EDCFDF91CF911F910F914D
:100290000895EF92FF920F931F93CF93DF931F92D6
:1002A000CDB7DEB7162FEFECF7E03197F1F700C0CE
:1002B0000000F8E08F02C001112460E080647983BF
:1002C0001DDFE12E7981F72E8701085F1F4F8FEC2C
:1002D00097E00197F1F700C0000061E0F70181911C
:1002E0007F010CDFE016F10691F78FEC97E00197A4
:1002F000F1F700C0000060E080E80F90DF91CF913F
:100300001F910F91FF90EF90F9CE0F931F93CF9312
:10031000DF93EB01EFECF7E03197F1F700C000005D
:10032000F8E08F02C001112460E08064E7DE8E01F6
:10033000085F1F4F8FEC97E00197F1F700C00000B6
:10034000FE01849161E0DADE2196C017D10791F7B2
:100350008FEC97E00197F1F700C0000060E080E8C3
:10036000DF91CF911F910F91C9CEEF92FF920F9322
:100370001F93CF93DF93EB01EFECF7E03197F1F7A9
:1003800000C00000F8E08F02C001112460E080642A
:10039000B5DE7E0128E0E20EF11C8FEC97E00197BC
:1003A000F1F700C000008E010F5F1F4FCE01E2D6B3
:1003B00061E0A4DE0E151F0511F0E801EECFEFECB1
:1003C000F7E03197F1F700C0000060E080E8DF91CE
:1003D000CF911F910F91FF90EF9090CE80937E0070
:1003E00042B321E030E0B90102C0660F771F8A9561
:1003F000E2F7462B42BB81B300907E0002C0220F81
:10040000331F0A94E2F7822B81BB089542B381E047
:1004100090E09C0100907E0002C0220F331F0A94DE
:10042000E2F72095242322BB21B300907E0002C076
:10043000880F991F0A94E2F7282B21BB8FEB93E0DA
:100440000197F1F700C0000021B381E090E0009037
:100450007E0002C0880F991F0A94E2F780958223DC
:1004600081BB90EA9A95F1F780B321E030E00090EB
:100470007E0002C0220F331F0A94E2F78223E3E3D7
:10048000F3E03197F1F700C00000089580FF30C01D
:10049000F89442B381E090E09C0100907E0002C09D
:1004A000220F331F0A94E2F72095242322BB21B3A5
:1004B00000907E0002C0880F991F0A94E2F7282B53
:1004C00021BB8AE18A95F1F700C0789421B381E0DD
:1004D00090E000907E0002C0880F991F0A94E2F716
:1004E0008095822381BB82E98A95F1F700C0089547
:1004F000F89442B381E090E09C0100907E0002C03D
:10050000220F331F0A94E2F72095242322BB21B344
:1005100000907E0002C0880F991F0A94E2F7282BF2
:1005200021BB8DEA8A95F1F7000021B381E090E0CC
:1005300000907E0002C0880F991F0A94E2F7809510
:10054000822381BB78948DE08A95F1F700000895AD
:10055000CF93DF93D82FC9E0C15029F08D2F817040
:1005600095DFD695F9CFDF91CF910895F89442B3F6
:1005700081E090E09C0100907E0002C0220F331FBA
:100580000A94E2F72095242322BB21B300907E0039
:1005900002C0880F991F0A94E2F7282B21BB28E09C
:1005A0002A95F1F721B381E090E000907E0002C02F
:1005B000880F991F0A94E2F78095822381BB8AE114
:1005C0008A95F1F700C080B390E000907E0002C0F1
:1005D000959587950A94E2F781709927789428E792
:1005E0002A95F1F70895CF93DF93D9E0C0E0D15079
:1005F00041F0BCDF20E8829FC0011124C695C82BC2
:10060000F6CF8C2FDF91CF9108956F927F928F92CA
:100610009F92AF92BF92CF92DF92EF92FF920F9391
:100620001F93CF93DF931F92CDB7DEB7EFDE81111B
:1006300072C083E38DDFD7DFC82ED5DFA82ED3DFCE
:10064000182FD1DF982ECFDF8983CDDFB82ECBDFF7
:10065000D82EC9DF882E298130E040E050E060E0EC
:1006600070E080E090E000E265D3B22FA32FF42F7A
:10067000E52F7B013C012B2D30E040E050E060E0B5
:1006800070E080E090E008E255D3B22BA32BF42B6E
:10069000E52BE62AF72A682A792ABC292D2D30E095
:1006A00040E050E060E070E080E090E000E342D3A2
:1006B000B22BA32BF42BE52BE62AF72A682A792AFA
:1006C000282D30E040E050E060E070E080E090E015
:1006D00008E330D3D22EC62EB72EA32BF42BE52B56
:1006E000012F10E020E030E0980111270027392980
:1006F0004A2D50E0542F442760E070E0042B152B66
:10070000262B372BBD29A12BF22BE32BEC28FB2822
:10071000682A792A08C0B1E0A0E0F0E0E0E0E12C2E
:10072000F12C612C712C2B2F3A2F4F2F5E2FB701FC
:10073000C3010F90DF91CF911F910F91FF90EF9028
:10074000DF90CF90BF90AF909F908F907F906F90F1
:1007500008950F931F93CF93DF93CDB7DEB72797FD
:100760000FB6F894DEBF0FBECDBF082F29833A83A2
:100770004B835C836D837E839F8348DE85E5E8DE63
:1007800011E429813A814B815C816D817E819F8159
:100790001150B1F0822F817029833A834B835C839F
:1007A0006D837E839F8372DE29813A814B815C81D8
:1007B0006D817E81802F9F8101E0D7D2082FE8CF05
:1007C00027960FB6F894DEBF0FBECDBFDF91CF9155
:1007D0001F910F9108956F927F928F929F92AF9287
:1007E000BF92CF92DF92EF92FF920F93CF93DF935E
:1007F000E22ED32EC42EB52EA62E972E882E792E1D
:10080000F02EE0E0F0E0D0E0C0E07CE8672E2E2D96
:100810003D2D4C2D5B2D6A2D792D882D972D0E2F7A
:10082000A4D2A8E0B0E08C2F8227C695269580FD43
:10083000C62511971097B9F7DF5F3896DF1538F3A3
:100840008C2FDF91CF910F91FF90EF90DF90CF90A1
:10085000BF90AF909F908F907F906F9008952F9250
:100860003F924F925F926F927F928F929F92AF9240
:10087000BF92CF92DF92EF92FF920F931F93CF938D
:10088000DF93CDB7DEB728970FB6F894DEBF0FBE63
:10089000CDBF2B833C83842E5D836E83572E482EE1
:1008A000392E1A830983B2DD80EF52DE612C712C60
:1008B000212CB12CC12CD12CE12C912CA12CF12C70
:1008C00010E081E0860D888751DE8F834FDE9F81A7
:1008D000913019F4813009F548C0EF81E1111DC054
:1008E00081111BC0E981FA818081F885F81789F0B0
:1008F0008F1790F02B813C81482D5D816E81752D85
:10090000842D932D062D31D220FF06C081E08F83E8
:1009100004C091E09F8301C028842F8130E040E033
:1009200050E060E070E080E090E0062D03D2B22A53
:10093000C32AD42AE52A962AA72AF82A192B8F81B6
:10094000A5DDEFEF6E1A7E0AF0E46F16710409F070
:10095000B8CFE981FA8120822B2D3C2D4D2D5E2DC3
:10096000692D7A2D8F2D912F08C021E030E040E0D5
:1009700050E060E070E080E090E028960FB6F894D8
:10098000DEBF0FBECDBFDF91CF911F910F91FF90C2
:10099000EF90DF90CF90BF90AF909F908F907F901F
:1009A0006F905F904F903F902F9008952F923F92BD
:1009B0004F925F926F927F928F929F92AF92BF926F
:1009C000CF92DF92EF92FF920F931F93CF93DF931B
:1009D0001F92CDB7DEB76C017B011982B12C212C9F
:1009E000A12C912C812C712C612C512C412C312C5F
:1009F0008E010F5F1F4F2A2D392D482D572D662D43
:100A0000752D842D932D2BDFA22E932E842E752EE3
:100A1000662E572E482E392EA1E0C3D1A1F008E052
:100A2000DADE811110C0F60188E0B89EE00DF11DFC
:100A30001124A082918282827382648255824682CE
:100A40003782B39406C02394E3E0E21570F02110DE
:100A5000CFCF8981811103C0F701B08206C0F701B1
:100A60008081B816C8F7212CC3CF0F90DF91CF91AA
:100A70001F910F91FF90EF90DF90CF90BF90AF90BC
:100A80009F908F907F906F905F904F903F902F90AE
:100A90000895BCDC8CEC5CCDCF92DF92EF92FF929C
:100AA0000F931F93CF93DF9369017A018B01D82FA6
:100AB000C92F4FDE84E44CDD2FE78FE492E1215013
:100AC00080409040E1F700C000009601A701B80106
:100AD0008D2F9C2F3EDE8EEB3BDD85DDC82F83DD29
:100AE000682F70E0762F66276C0F711D882777FDC1
:100AF0008095982FFED120E030E040E85DE3A9D258
:100B0000DF91CF911F910F91FF90EF90DF90CF90E9
:100B10000895CF93DF93CDB7DEB7CD56D1090FB689
:100B2000F894DEBF0FBECDBF2FEF80E792E02150DB
:100B300080409040E1F700C00000F6DA34DB84E04A
:100B400029DB80E01EDB87E049DC88E0AE968FAFD2
:100B5000AE97BE0163597F4FCE01019627DF8AE031
:100B6000E0E6F0E0DE01AE5ABF4F01900D928A95AB
:100B7000E1F7E2E5F0E0EC0FFD1F3A9687E0DF01D8
:100B80001D928A95E9F7AE968FADAE974AE0BE0109
:100B900068597F4F90E0CBD2BE0168597F4FCE019C
:100BA0008E5A9F4FB9D261E770E0CE018E5A9F4FA7
:100BB000B3D2F9DA60E080E0FFDACE018E5A9F4FBF
:100BC0001FDBBFEFE3EDF0E3B150E040F040E1F7B1
:100BD00000C00000312C94E5492E9BE5592E612C74
:100BE000712C4E0125E4820E911C2DE0222EAE9632
:100BF0008FADAE97381608F09BC0E1E0F0E0EC0F47
:100C0000FD1F88E0389EE00DF11D11242081318107
:100C10004281538164817581868197813DDF6B01BB
:100C20007C01339425964CAE5DAE6EAE7FAE2597BB
:100C3000D401E22D1D92EA95E9F74AE0BE016D5913
:100C40007F4F832D90E073D2BE016D597F4FCE014F
:100C50008F5B9F4F61D263E770E0CE018F5B9F4F48
:100C60005BD2C701B60112D15B0177FF04C0AA2491
:100C7000BB24A61AB70A882777FD8095982F39D10B
:100C80009B01AC01C701B60198D020E030E040E202
:100C900051E4DFD1FBD08B0177FF04C0002711277F
:100CA000061B170B20E030E0A901C701B601EAD00E
:100CB00087FF06C066E770E0CE018F5B9F4F2CD2A6
:100CC0004AE0BE016D597F4FC50131D2BE016D5959
:100CD0007F4FCE018F5B9F4F1FD268E770E0CE0140
:100CE0008F5B9F4F19D24AE0BE016D597F4FC801FB
:100CF0001ED2BE016D597F4FCE018F5B9F4F0CD22C
:100D00006AE770E0CE018F5B9F4F06D24CDA60E05D
:100D100080E052DACE018F5B9F4F72DAFFEF24E35F
:100D20008CE0F15020408040E1F700C000005FCF30
:100D3000312C60CF0F93083090F0982F872F762FAB
:100D4000652F542F432F322F22270850F4CF220F24
:100D5000331F441F551F661F771F881F991F0A9551
:100D6000B2F70F91089597FB10F8169400080F93AF
:100D7000083098F00850232F342F452F562F672F17
:100D8000782F892F902DF4CF059497958795779597
:100D9000679557954795379527950A95AAF70F9127
:100DA00008950024A7FD00942A173005400550053A
:100DB000600570058005900508955058BB27AA2747
:100DC0000ED00DC1FED030F003D120F031F49F3FA2
:100DD00011F41EF4F3C00EF4E095E7FBE9C0E92F2F
:100DE0000FD180F3BA17620773078407950718F0CD
:100DF00071F49EF527C10EF4E0950B2EBA2FA02DAD
:100E00000B01B90190010C01CA01A0011124FF27B7
:100E1000591B99F0593F50F4503E68F11A16F040B2
:100E2000A22F232F342F4427585FF3CF46953795B1
:100E30002795A795F0405395C9F77EF41F16BA0B76
:100E4000620B730B840BBAF09150A1F0FF0FBB1F24
:100E5000661F771F881FC2F70EC0BA0F621F731F6D
:100E6000841F48F4879577956795B795F7959E3FCA
:100E700008F0B3CF9395880F08F09927EE0F979558
:100E80008795089571D008F481E0089504D068949E
:100E9000B111D9C00895BCD088F09F5790F0B92FF8
:100EA0009927B751A0F0D1F0660F771F881F991FBF
:100EB0001AF0BA95C9F712C0B13081F0C3D0B1E0D1
:100EC0000895C0C0672F782F8827B85F39F0B93FE1
:100ED000CCF3869577956795B395D9F73EF49095C1
:100EE0008095709561957F4F8F4F9F4F0895E8943F
:100EF00009C097FB3EF490958095709561957F4F62
:100F00008F4F9F4F9923A9F0F92F96E9BB2793950F
:100F1000F695879577956795B795F111F8CFFAF41F
:100F2000BB0F11F460FF1BC06F5F7F4F8F4F9F4F50
:100F300016C0882311F096E911C0772321F09EE8AE
:100F4000872F762F05C0662371F096E8862F70E014
:100F500060E02AF09A95660F771F881FDAF7880FEE
:100F60009695879597F90895990F0008550FAA0B44
:100F7000E0E8FEEF16161706E807F907C0F01216AC
:100F80001306E407F50798F0621B730B840B950BAF
:100F900039F40A2661F0232B242B252B21F4089504
:100FA0000A2609F4A140A6958FEF811D811D0895A1
:100FB00097F99F6780E870E060E008959FEF80EC0C
:100FC000089500240A9416161706180609060895AF
:100FD00000240A9412161306140605060895092E15
:100FE0000394000C11F4882352F0BB0F40F4BF2B84
:100FF00011F460FF04C06F5F7F4F8F4F9F4F0895C4
:1010000057FD9058440F551F59F05F3F71F04795B9
:10101000880F97FB991F61F09F3F79F0879508959E
:10102000121613061406551FF2CF4695F1DF08C0BD
:10103000161617061806991FF1CF869571056105DA
:1010400008940895E894BB2766277727CB0197F982
:1010500008950BD0C4CFB5DF28F0BADF18F0952380
:1010600009F0A6CFABCF1124EECFCADFA0F3959F36
:10107000D1F3950F50E0551F629FF001729FBB277F
:10108000F00DB11D639FAA27F00DB11DAA1F649F2B
:101090006627B00DA11D661F829F2227B00DA11DDE
:1010A000621F739FB00DA11D621F839FA00D611D64
:1010B000221F749F3327A00D611D231F849F600D85
:1010C000211D822F762F6A2F11249F5750408AF0BE
:1010D000E1F088234AF0EE0FFF1FBB1F661F771F4A
:1010E000881F91505040A9F79E3F510570F060CF86
:1010F000AACF5F3FECF3983EDCF386957795679532
:10110000B795F795E7959F5FC1F7FE2B880F911D67
:101110009695879597F90895FB01DC010D900020C5
:10112000E9F7119701900D920020E1F70895BB2790
:101130004A3031F4992322F4BDE2909581959F4F76
:1011400001C0BB27FB015527AA27880F991FAA1F9B
:10115000A41710F0A41B83955051B9F7A05DAA33D2
:1011600008F0A95DA193009779F7B111B19311929D
:10117000CB0108C0E199FECF9FBB8EBBE09A9927B7
:101180008DB30895DC01FC01672F71917723E1F79E
:10119000329704C07C916D9370836291AE17BF0744
:0811A000C8F30895F894FFCF95
:1011A80064657669636573205B00000000000000D9
:0E11B800005D005D3D002D002E00274300006D
:00000001FF
